{
  "_format": "hh-sol-artifact-1",
  "contractName": "JobIntVerification",
  "sourceName": "contracts/JobintVerification.sol",
  "abi": [
    {
      "anonymous": false,
      "inputs": [
        {
          "indexed": true,
          "internalType": "string",
          "name": "applicationId",
          "type": "string"
        },
        {
          "indexed": true,
          "internalType": "address",
          "name": "userWallet",
          "type": "address"
        },
        {
          "indexed": false,
          "internalType": "string",
          "name": "company",
          "type": "string"
        },
        {
          "indexed": false,
          "internalType": "string",
          "name": "jobTitle",
          "type": "string"
        },
        {
          "indexed": false,
          "internalType": "uint256",
          "name": "timestamp",
          "type": "uint256"
        }
      ],
      "name": "ApplicationSubmitted",
      "type": "event"
    },
    {
      "anonymous": false,
      "inputs": [
        {
          "indexed": true,
          "internalType": "string",
          "name": "interviewId",
          "type": "string"
        },
        {
          "indexed": true,
          "internalType": "address",
          "name": "userWallet",
          "type": "address"
        },
        {
          "indexed": false,
          "internalType": "uint256",
          "name": "timestamp",
          "type": "uint256"
        }
      ],
      "name": "InterviewCancelled",
      "type": "event"
    },
    {
      "anonymous": false,
      "inputs": [
        {
          "indexed": true,
          "internalType": "string",
          "name": "interviewId",
          "type": "string"
        },
        {
          "indexed": true,
          "internalType": "address",
          "name": "userWallet",
          "type": "address"
        },
        {
          "indexed": false,
          "internalType": "string",
          "name": "company",
          "type": "string"
        },
        {
          "indexed": false,
          "internalType": "uint256",
          "name": "scheduledTime",
          "type": "uint256"
        }
      ],
      "name": "InterviewScheduled",
      "type": "event"
    },
    {
      "inputs": [
        {
          "internalType": "string",
          "name": "",
          "type": "string"
        }
      ],
      "name": "applications",
      "outputs": [
        {
          "internalType": "address",
          "name": "userWallet",
          "type": "address"
        },
        {
          "internalType": "string",
          "name": "jobId",
          "type": "string"
        },
        {
          "internalType": "string",
          "name": "company",
          "type": "string"
        },
        {
          "internalType": "string",
          "name": "jobTitle",
          "type": "string"
        },
        {
          "internalType": "uint256",
          "name": "timestamp",
          "type": "uint256"
        },
        {
          "internalType": "bytes32",
          "name": "dataHash",
          "type": "bytes32"
        },
        {
          "internalType": "bool",
          "name": "exists",
          "type": "bool"
        }
      ],
      "stateMutability": "view",
      "type": "function"
    },
    {
      "inputs": [
        {
          "internalType": "string",
          "name": "interviewId",
          "type": "string"
        }
      ],
      "name": "cancelInterview",
      "outputs": [],
      "stateMutability": "nonpayable",
      "type": "function"
    },
    {
      "inputs": [
        {
          "internalType": "string",
          "name": "applicationId",
          "type": "string"
        }
      ],
      "name": "getApplication",
      "outputs": [
        {
          "internalType": "address",
          "name": "userWallet",
          "type": "address"
        },
        {
          "internalType": "string",
          "name": "jobId",
          "type": "string"
        },
        {
          "internalType": "string",
          "name": "company",
          "type": "string"
        },
        {
          "internalType": "string",
          "name": "jobTitle",
          "type": "string"
        },
        {
          "internalType": "uint256",
          "name": "timestamp",
          "type": "uint256"
        },
        {
          "internalType": "bytes32",
          "name": "dataHash",
          "type": "bytes32"
        }
      ],
      "stateMutability": "view",
      "type": "function"
    },
    {
      "inputs": [
        {
          "internalType": "string",
          "name": "interviewId",
          "type": "string"
        }
      ],
      "name": "getInterview",
      "outputs": [
        {
          "internalType": "address",
          "name": "userWallet",
          "type": "address"
        },
        {
          "internalType": "string",
          "name": "applicationId",
          "type": "string"
        },
        {
          "internalType": "string",
          "name": "company",
          "type": "string"
        },
        {
          "internalType": "uint256",
          "name": "scheduledTime",
          "type": "uint256"
        },
        {
          "internalType": "bytes32",
          "name": "dataHash",
          "type": "bytes32"
        },
        {
          "internalType": "bool",
          "name": "cancelled",
          "type": "bool"
        }
      ],
      "stateMutability": "view",
      "type": "function"
    },
    {
      "inputs": [
        {
          "internalType": "address",
          "name": "user",
          "type": "address"
        }
      ],
      "name": "getUserApplicationCount",
      "outputs": [
        {
          "internalType": "uint256",
          "name": "count",
          "type": "uint256"
        }
      ],
      "stateMutability": "view",
      "type": "function"
    },
    {
      "inputs": [
        {
          "internalType": "address",
          "name": "user",
          "type": "address"
        }
      ],
      "name": "getUserApplications",
      "outputs": [
        {
          "internalType": "string[]",
          "name": "applicationIds",
          "type": "string[]"
        }
      ],
      "stateMutability": "view",
      "type": "function"
    },
    {
      "inputs": [
        {
          "internalType": "address",
          "name": "user",
          "type": "address"
        }
      ],
      "name": "getUserInterviewCount",
      "outputs": [
        {
          "internalType": "uint256",
          "name": "count",
          "type": "uint256"
        }
      ],
      "stateMutability": "view",
      "type": "function"
    },
    {
      "inputs": [
        {
          "internalType": "address",
          "name": "user",
          "type": "address"
        }
      ],
      "name": "getUserInterviews",
      "outputs": [
        {
          "internalType": "string[]",
          "name": "interviewIds",
          "type": "string[]"
        }
      ],
      "stateMutability": "view",
      "type": "function"
    },
    {
      "inputs": [
        {
          "internalType": "string",
          "name": "",
          "type": "string"
        }
      ],
      "name": "interviews",
      "outputs": [
        {
          "internalType": "address",
          "name": "userWallet",
          "type": "address"
        },
        {
          "internalType": "string",
          "name": "interviewId",
          "type": "string"
        },
        {
          "internalType": "string",
          "name": "applicationId",
          "type": "string"
        },
        {
          "internalType": "string",
          "name": "company",
          "type": "string"
        },
        {
          "internalType": "uint256",
          "name": "scheduledTime",
          "type": "uint256"
        },
        {
          "internalType": "bytes32",
          "name": "dataHash",
          "type": "bytes32"
        },
        {
          "internalType": "bool",
          "name": "exists",
          "type": "bool"
        },
        {
          "internalType": "bool",
          "name": "cancelled",
          "type": "bool"
        }
      ],
      "stateMutability": "view",
      "type": "function"
    },
    {
      "inputs": [
        {
          "internalType": "string",
          "name": "interviewId",
          "type": "string"
        },
        {
          "internalType": "string",
          "name": "applicationId",
          "type": "string"
        },
        {
          "internalType": "string",
          "name": "company",
          "type": "string"
        },
        {
          "internalType": "uint256",
          "name": "scheduledTime",
          "type": "uint256"
        },
        {
          "internalType": "bytes32",
          "name": "dataHash",
          "type": "bytes32"
        }
      ],
      "name": "scheduleInterview",
      "outputs": [],
      "stateMutability": "nonpayable",
      "type": "function"
    },
    {
      "inputs": [
        {
          "internalType": "string",
          "name": "applicationId",
          "type": "string"
        },
        {
          "internalType": "string",
          "name": "jobId",
          "type": "string"
        },
        {
          "internalType": "string",
          "name": "company",
          "type": "string"
        },
        {
          "internalType": "string",
          "name": "jobTitle",
          "type": "string"
        },
        {
          "internalType": "bytes32",
          "name": "dataHash",
          "type": "bytes32"
        }
      ],
      "name": "submitApplication",
      "outputs": [],
      "stateMutability": "nonpayable",
      "type": "function"
    },
    {
      "inputs": [
        {
          "internalType": "address",
          "name": "",
          "type": "address"
        },
        {
          "internalType": "uint256",
          "name": "",
          "type": "uint256"
        }
      ],
      "name": "userApplications",
      "outputs": [
        {
          "internalType": "string",
          "name": "",
          "type": "string"
        }
      ],
      "stateMutability": "view",
      "type": "function"
    },
    {
      "inputs": [
        {
          "internalType": "address",
          "name": "",
          "type": "address"
        },
        {
          "internalType": "uint256",
          "name": "",
          "type": "uint256"
        }
      ],
      "name": "userInterviews",
      "outputs": [
        {
          "internalType": "string",
          "name": "",
          "type": "string"
        }
      ],
      "stateMutability": "view",
      "type": "function"
    },
    {
      "inputs": [
        {
          "internalType": "string",
          "name": "applicationId",
          "type": "string"
        },
        {
          "internalType": "bytes32",
          "name": "dataToVerify",
          "type": "bytes32"
        }
      ],
      "name": "verifyApplicationData",
      "outputs": [
        {
          "internalType": "bool",
          "name": "isValid",
          "type": "bool"
        }
      ],
      "stateMutability": "view",
      "type": "function"
    }
  ],
  "bytecode": "0x608060405234801561001057600080fd5b50611d4b806100206000396000f3fe608060405234801561001057600080fd5b50600436106100ea5760003560e01c80638e3da2d81161008c578063d74061aa11610066578063d74061aa14610233578063e4c3d33c14610256578063e6f5291b1461027b578063f11fed89146102a057600080fd5b80638e3da2d8146101e45780638e7b5ab71461020d578063b7c362911461022057600080fd5b8063349bd2a3116100c8578063349bd2a3146101655780634106fa32146101855780635617e5d7146101985780638bda5734146101cf57600080fd5b80630d395eb9146100ef57806311aac7e414610118578063185f48821461013f575b600080fd5b6101026100fd36600461160a565b6102b3565b60405161010f9190611684565b60405180910390f35b61012b610126366004611741565b61036c565b60405161010f98979695949392919061177e565b61015261014d366004611741565b610566565b60405161010f97969594939291906117f5565b610178610173366004611861565b610753565b60405161010f919061187c565b61010261019336600461160a565b610842565b6101c16101a6366004611861565b6001600160a01b031660009081526003602052604090205490565b60405190815260200161010f565b6101e26101dd3660046118de565b61085e565b005b6101c16101f2366004611861565b6001600160a01b031660009081526002602052604090205490565b6101e261021b366004611978565b610b5a565b61017861022e366004611861565b610daf565b610246610241366004611a2d565b610e93565b604051901515815260200161010f565b610269610264366004611741565b610f02565b60405161010f96959493929190611a72565b61028e610289366004611741565b6111ab565b60405161010f96959493929190611ac9565b6101e26102ae366004611741565b61141d565b600260205281600052604060002081815481106102cf57600080fd5b906000526020600020016000915091505080546102eb90611b29565b80601f016020809104026020016040519081016040528092919081815260200182805461031790611b29565b80156103645780601f1061033957610100808354040283529160200191610364565b820191906000526020600020905b81548152906001019060200180831161034757829003601f168201915b505050505081565b805160208183018101805160018083529383019290940191909120929052815490820180546001600160a01b0390921692916103a790611b29565b80601f01602080910402602001604051908101604052809291908181526020018280546103d390611b29565b80156104205780601f106103f557610100808354040283529160200191610420565b820191906000526020600020905b81548152906001019060200180831161040357829003601f168201915b50505050509080600201805461043590611b29565b80601f016020809104026020016040519081016040528092919081815260200182805461046190611b29565b80156104ae5780601f10610483576101008083540402835291602001916104ae565b820191906000526020600020905b81548152906001019060200180831161049157829003601f168201915b5050505050908060030180546104c390611b29565b80601f01602080910402602001604051908101604052809291908181526020018280546104ef90611b29565b801561053c5780601f106105115761010080835404028352916020019161053c565b820191906000526020600020905b81548152906001019060200180831161051f57829003601f168201915b50505050600483015460058401546006909401549293909290915060ff8082169161010090041688565b8051602081830181018051600082529282019190930120915280546001820180546001600160a01b03909216929161059d90611b29565b80601f01602080910402602001604051908101604052809291908181526020018280546105c990611b29565b80156106165780601f106105eb57610100808354040283529160200191610616565b820191906000526020600020905b8154815290600101906020018083116105f957829003601f168201915b50505050509080600201805461062b90611b29565b80601f016020809104026020016040519081016040528092919081815260200182805461065790611b29565b80156106a45780601f10610679576101008083540402835291602001916106a4565b820191906000526020600020905b81548152906001019060200180831161068757829003601f168201915b5050505050908060030180546106b990611b29565b80601f01602080910402602001604051908101604052809291908181526020018280546106e590611b29565b80156107325780601f1061070757610100808354040283529160200191610732565b820191906000526020600020905b81548152906001019060200180831161071557829003601f168201915b50505050600483015460058401546006909401549293909290915060ff1687565b6001600160a01b0381166000908152600360209081526040808320805482518185028101850190935280835260609492939192909184015b828210156108375783829060005260206000200180546107aa90611b29565b80601f01602080910402602001604051908101604052809291908181526020018280546107d690611b29565b80156108235780601f106107f857610100808354040283529160200191610823565b820191906000526020600020905b81548152906001019060200180831161080657829003601f168201915b50505050508152602001906001019061078b565b505050509050919050565b600360205281600052604060002081815481106102cf57600080fd5b60018560405161086e9190611b63565b9081526040519081900360200190206006015460ff16156108d65760405162461bcd60e51b815260206004820152601860248201527f496e7465727669657720616c726561647920657869737473000000000000000060448201526064015b60405180910390fd5b6000846040516108e69190611b63565b9081526040519081900360200190206006015460ff166109185760405162461bcd60e51b81526004016108cd90611b7f565b336001600160a01b03166000856040516109329190611b63565b908152604051908190036020019020546001600160a01b03161461098f5760405162461bcd60e51b81526020600482015260146024820152732737ba103cb7bab91030b8383634b1b0ba34b7b760611b60448201526064016108cd565b4282116109d75760405162461bcd60e51b8152602060048201526016602482015275496e76616c6964207363686564756c65642074696d6560501b60448201526064016108cd565b604080516101008101825233815260208101879052808201869052606081018590526080810184905260a08101839052600160c08201819052600060e0830152915190918291610a28908990611b63565b90815260405160209181900382019020825181546001600160a01b0319166001600160a01b03909116178155908201516001820190610a679082611bfd565b5060408201516002820190610a7c9082611bfd565b5060608201516003820190610a919082611bfd565b506080820151600482015560a0820151600582015560c08201516006909101805460e09093015115156101000261ff00199215159290921661ffff199093169290921717905533600090815260036020908152604082208054600181018255908352912001610b008782611bfd565b506040513390610b11908890611b63565b60405180910390207f680174b9987b3baf940c61486a62cd6eda183dbfd511d1f5a9490784d08a9ebf8686604051610b4a929190611cbd565b60405180910390a3505050505050565b600085604051610b6a9190611b63565b9081526040519081900360200190206006015460ff1615610bcd5760405162461bcd60e51b815260206004820152601a60248201527f4170706c69636174696f6e20616c72656164792065786973747300000000000060448201526064016108cd565b6000855111610c175760405162461bcd60e51b8152602060048201526016602482015275125b9d985b1a5908185c1c1b1a58d85d1a5bdb88125160521b60448201526064016108cd565b6000835111610c5b5760405162461bcd60e51b815260206004820152601060248201526f10dbdb5c185b9e481c995c5d5a5c995960821b60448201526064016108cd565b6040805160e081018252338152602081018690528082018590526060810184905242608082015260a08101839052600160c082015290518190600090610ca2908990611b63565b90815260405160209181900382019020825181546001600160a01b0319166001600160a01b03909116178155908201516001820190610ce19082611bfd565b5060408201516002820190610cf69082611bfd565b5060608201516003820190610d0b9082611bfd565b506080820151600482015560a0820151600582015560c0909101516006909101805460ff191691151591909117905533600090815260026020908152604082208054600181018255908352912001610d638782611bfd565b506040513390610d74908890611b63565b60405180910390207f4f5d3862ec3bef77a68d45d356a92191fc765c3893280a848b6acd5d09267898868642604051610b4a93929190611cdf565b6001600160a01b0381166000908152600260209081526040808320805482518185028101850190935280835260609492939192909184015b82821015610837578382906000526020600020018054610e0690611b29565b80601f0160208091040260200160405190810160405280929190818152602001828054610e3290611b29565b8015610e7f5780601f10610e5457610100808354040283529160200191610e7f565b820191906000526020600020905b815481529060010190602001808311610e6257829003601f168201915b505050505081526020019060010190610de7565b60008083604051610ea49190611b63565b9081526040519081900360200190206006015460ff16610ed65760405162461bcd60e51b81526004016108cd90611b7f565b81600084604051610ee79190611b63565b90815260200160405180910390206005015414905092915050565b6000606080600080600080600188604051610f1d9190611b63565b908152604080519182900360209081018320610100840190925281546001600160a01b0316835260018201805491840191610f5790611b29565b80601f0160208091040260200160405190810160405280929190818152602001828054610f8390611b29565b8015610fd05780601f10610fa557610100808354040283529160200191610fd0565b820191906000526020600020905b815481529060010190602001808311610fb357829003601f168201915b50505050508152602001600282018054610fe990611b29565b80601f016020809104026020016040519081016040528092919081815260200182805461101590611b29565b80156110625780601f1061103757610100808354040283529160200191611062565b820191906000526020600020905b81548152906001019060200180831161104557829003601f168201915b5050505050815260200160038201805461107b90611b29565b80601f01602080910402602001604051908101604052809291908181526020018280546110a790611b29565b80156110f45780601f106110c9576101008083540402835291602001916110f4565b820191906000526020600020905b8154815290600101906020018083116110d757829003601f168201915b5050509183525050600482015460208201526005820154604082015260069091015460ff8082161515606084015261010090910416151560809091015260c081015190915061117b5760405162461bcd60e51b8152602060048201526013602482015272125b9d195c9d9a595dc81b9bdd08199bdd5b99606a1b60448201526064016108cd565b805160408201516060830151608084015160a085015160e090950151939c929b5090995097509195509350915050565b60006060806060600080600080886040516111c69190611b63565b90815260408051918290036020908101832060e0840190925281546001600160a01b03168352600182018054918401916111ff90611b29565b80601f016020809104026020016040519081016040528092919081815260200182805461122b90611b29565b80156112785780601f1061124d57610100808354040283529160200191611278565b820191906000526020600020905b81548152906001019060200180831161125b57829003601f168201915b5050505050815260200160028201805461129190611b29565b80601f01602080910402602001604051908101604052809291908181526020018280546112bd90611b29565b801561130a5780601f106112df5761010080835404028352916020019161130a565b820191906000526020600020905b8154815290600101906020018083116112ed57829003601f168201915b5050505050815260200160038201805461132390611b29565b80601f016020809104026020016040519081016040528092919081815260200182805461134f90611b29565b801561139c5780601f106113715761010080835404028352916020019161139c565b820191906000526020600020905b81548152906001019060200180831161137f57829003601f168201915b5050509183525050600482015460208201526005820154604082015260069091015460ff16151560609091015260c08101519091506113ed5760405162461bcd60e51b81526004016108cd90611b7f565b8051602082015160408301516060840151608085015160a090950151939c929b5090995097509195509350915050565b80336001600160a01b03166001826040516114389190611b63565b908152604051908190036020019020546001600160a01b0316146114945760405162461bcd60e51b81526020600482015260136024820152722737ba1034b73a32b93b34b2bb9037bbb732b960691b60448201526064016108cd565b6001826040516114a49190611b63565b9081526040519081900360200190206006015460ff166114fc5760405162461bcd60e51b8152602060048201526013602482015272125b9d195c9d9a595dc81b9bdd08199bdd5b99606a1b60448201526064016108cd565b60018260405161150c9190611b63565b9081526040519081900360200190206006015460ff61010090910416156115695760405162461bcd60e51b8152602060048201526011602482015270105b1c9958591e4818d85b98d95b1b1959607a1b60448201526064016108cd565b6001808360405161157a9190611b63565b90815260405190819003602001812060060180549215156101000261ff00199093169290921790915533906115b0908490611b63565b604051908190038120428252907fd362253c5020c21328f8386039ec1b44aa7704c6646ef154460840cccca163d19060200160405180910390a35050565b80356001600160a01b038116811461160557600080fd5b919050565b6000806040838503121561161d57600080fd5b611626836115ee565b946020939093013593505050565b60005b8381101561164f578181015183820152602001611637565b50506000910152565b60008151808452611670816020860160208601611634565b601f01601f19169290920160200192915050565b6020815260006116976020830184611658565b9392505050565b634e487b7160e01b600052604160045260246000fd5b600082601f8301126116c557600080fd5b813567ffffffffffffffff808211156116e0576116e061169e565b604051601f8301601f19908116603f011681019082821181831017156117085761170861169e565b8160405283815286602085880101111561172157600080fd5b836020870160208301376000602085830101528094505050505092915050565b60006020828403121561175357600080fd5b813567ffffffffffffffff81111561176a57600080fd5b611776848285016116b4565b949350505050565b6001600160a01b0389168152610100602082018190526000906117a38382018b611658565b905082810360408401526117b7818a611658565b905082810360608401526117cb8189611658565b6080840197909752505060a081019390935290151560c0830152151560e090910152949350505050565b6001600160a01b038816815260e06020820181905260009061181990830189611658565b828103604084015261182b8189611658565b9050828103606084015261183f8188611658565b6080840196909652505060a0810192909252151560c090910152949350505050565b60006020828403121561187357600080fd5b611697826115ee565b6000602080830181845280855180835260408601915060408160051b870101925083870160005b828110156118d157603f198886030184526118bf858351611658565b945092850192908501906001016118a3565b5092979650505050505050565b600080600080600060a086880312156118f657600080fd5b853567ffffffffffffffff8082111561190e57600080fd5b61191a89838a016116b4565b9650602088013591508082111561193057600080fd5b61193c89838a016116b4565b9550604088013591508082111561195257600080fd5b5061195f888289016116b4565b9598949750949560608101359550608001359392505050565b600080600080600060a0868803121561199057600080fd5b853567ffffffffffffffff808211156119a857600080fd5b6119b489838a016116b4565b965060208801359150808211156119ca57600080fd5b6119d689838a016116b4565b955060408801359150808211156119ec57600080fd5b6119f889838a016116b4565b94506060880135915080821115611a0e57600080fd5b50611a1b888289016116b4565b95989497509295608001359392505050565b60008060408385031215611a4057600080fd5b823567ffffffffffffffff811115611a5757600080fd5b611a63858286016116b4565b95602094909401359450505050565b6001600160a01b038716815260c060208201819052600090611a9690830188611658565b8281036040840152611aa88188611658565b606084019690965250506080810192909252151560a0909101529392505050565b6001600160a01b038716815260c060208201819052600090611aed90830188611658565b8281036040840152611aff8188611658565b90508281036060840152611b138187611658565b6080840195909552505060a00152949350505050565b600181811c90821680611b3d57607f821691505b602082108103611b5d57634e487b7160e01b600052602260045260246000fd5b50919050565b60008251611b75818460208701611634565b9190910192915050565b602080825260159082015274105c1c1b1a58d85d1a5bdb881b9bdd08199bdd5b99605a1b604082015260600190565b601f821115611bf857600081815260208120601f850160051c81016020861015611bd55750805b601f850160051c820191505b81811015611bf457828155600101611be1565b5050505b505050565b815167ffffffffffffffff811115611c1757611c1761169e565b611c2b81611c258454611b29565b84611bae565b602080601f831160018114611c605760008415611c485750858301515b600019600386901b1c1916600185901b178555611bf4565b600085815260208120601f198616915b82811015611c8f57888601518255948401946001909101908401611c70565b5085821015611cad5787850151600019600388901b60f8161c191681555b5050505050600190811b01905550565b604081526000611cd06040830185611658565b90508260208301529392505050565b606081526000611cf26060830186611658565b8281036020840152611d048186611658565b91505082604083015294935050505056fea26469706673582212207665e94dd002c74e582fbf4fe6271fce5ca0b0c055462d4d93e2b8c168f513d964736f6c63430008130033",
  "linkReferences": {},
  "deployedLinkReferences": {}
}